{
  "contractName": "MultiSigWallet",
  "abi": [
    {
      "inputs": [
        {
          "internalType": "address[]",
          "name": "_ownersAddressArray",
          "type": "address[]"
        },
        {
          "internalType": "uint256",
          "name": "_numConfirmationsRequired",
          "type": "uint256"
        }
      ],
      "stateMutability": "nonpayable",
      "type": "constructor"
    },
    {
      "anonymous": false,
      "inputs": [
        {
          "indexed": true,
          "internalType": "address",
          "name": "sender",
          "type": "address"
        },
        {
          "indexed": false,
          "internalType": "uint256",
          "name": "amount",
          "type": "uint256"
        },
        {
          "indexed": false,
          "internalType": "uint256",
          "name": "balance",
          "type": "uint256"
        }
      ],
      "name": "DepositEvent",
      "type": "event"
    },
    {
      "anonymous": false,
      "inputs": [
        {
          "indexed": true,
          "internalType": "address",
          "name": "owner",
          "type": "address"
        },
        {
          "indexed": true,
          "internalType": "uint256",
          "name": "txIndex",
          "type": "uint256"
        }
      ],
      "name": "confirmTransactionDetails",
      "type": "event"
    },
    {
      "anonymous": false,
      "inputs": [
        {
          "indexed": true,
          "internalType": "address",
          "name": "owner",
          "type": "address"
        },
        {
          "indexed": true,
          "internalType": "uint256",
          "name": "txIndex",
          "type": "uint256"
        }
      ],
      "name": "executeTransactionDetails",
      "type": "event"
    },
    {
      "anonymous": false,
      "inputs": [
        {
          "indexed": true,
          "internalType": "address",
          "name": "owner",
          "type": "address"
        },
        {
          "indexed": true,
          "internalType": "uint256",
          "name": "txIndex",
          "type": "uint256"
        }
      ],
      "name": "revokeConfirmationDetails",
      "type": "event"
    },
    {
      "anonymous": false,
      "inputs": [
        {
          "indexed": true,
          "internalType": "address",
          "name": "owner",
          "type": "address"
        },
        {
          "indexed": true,
          "internalType": "address",
          "name": "to",
          "type": "address"
        },
        {
          "indexed": false,
          "internalType": "uint256",
          "name": "value",
          "type": "uint256"
        },
        {
          "indexed": false,
          "internalType": "bytes",
          "name": "data",
          "type": "bytes"
        },
        {
          "indexed": true,
          "internalType": "uint256",
          "name": "txIndex",
          "type": "uint256"
        }
      ],
      "name": "submitTransactionDetails",
      "type": "event"
    },
    {
      "inputs": [
        {
          "internalType": "uint256",
          "name": "",
          "type": "uint256"
        },
        {
          "internalType": "address",
          "name": "",
          "type": "address"
        }
      ],
      "name": "hasConfirmed",
      "outputs": [
        {
          "internalType": "bool",
          "name": "",
          "type": "bool"
        }
      ],
      "stateMutability": "view",
      "type": "function"
    },
    {
      "inputs": [
        {
          "internalType": "address",
          "name": "",
          "type": "address"
        }
      ],
      "name": "isOwner",
      "outputs": [
        {
          "internalType": "bool",
          "name": "",
          "type": "bool"
        }
      ],
      "stateMutability": "view",
      "type": "function"
    },
    {
      "inputs": [],
      "name": "numberOfConfirmationsRequired",
      "outputs": [
        {
          "internalType": "uint256",
          "name": "",
          "type": "uint256"
        }
      ],
      "stateMutability": "view",
      "type": "function"
    },
    {
      "inputs": [
        {
          "internalType": "uint256",
          "name": "",
          "type": "uint256"
        }
      ],
      "name": "owners",
      "outputs": [
        {
          "internalType": "address",
          "name": "",
          "type": "address"
        }
      ],
      "stateMutability": "view",
      "type": "function"
    },
    {
      "inputs": [
        {
          "internalType": "uint256",
          "name": "",
          "type": "uint256"
        }
      ],
      "name": "transactions",
      "outputs": [
        {
          "internalType": "address",
          "name": "to",
          "type": "address"
        },
        {
          "internalType": "uint256",
          "name": "value",
          "type": "uint256"
        },
        {
          "internalType": "bytes",
          "name": "data",
          "type": "bytes"
        },
        {
          "internalType": "uint256",
          "name": "numberOfConfirmations",
          "type": "uint256"
        },
        {
          "internalType": "bool",
          "name": "executed",
          "type": "bool"
        }
      ],
      "stateMutability": "view",
      "type": "function"
    },
    {
      "inputs": [],
      "name": "txIndex",
      "outputs": [
        {
          "internalType": "uint256",
          "name": "",
          "type": "uint256"
        }
      ],
      "stateMutability": "view",
      "type": "function"
    },
    {
      "stateMutability": "payable",
      "type": "receive"
    },
    {
      "inputs": [
        {
          "internalType": "address",
          "name": "_to",
          "type": "address"
        },
        {
          "internalType": "uint256",
          "name": "_value",
          "type": "uint256"
        },
        {
          "internalType": "bytes",
          "name": "_data",
          "type": "bytes"
        }
      ],
      "name": "submitTransaction",
      "outputs": [],
      "stateMutability": "nonpayable",
      "type": "function"
    },
    {
      "inputs": [
        {
          "internalType": "uint256",
          "name": "_txIndex",
          "type": "uint256"
        }
      ],
      "name": "confirmTransaction",
      "outputs": [],
      "stateMutability": "nonpayable",
      "type": "function"
    },
    {
      "inputs": [
        {
          "internalType": "uint256",
          "name": "_txIndex",
          "type": "uint256"
        }
      ],
      "name": "executeTransaction",
      "outputs": [],
      "stateMutability": "nonpayable",
      "type": "function"
    },
    {
      "inputs": [
        {
          "internalType": "uint256",
          "name": "_txIndex",
          "type": "uint256"
        }
      ],
      "name": "revokeConfirmation",
      "outputs": [],
      "stateMutability": "nonpayable",
      "type": "function"
    },
    {
      "inputs": [],
      "name": "getOwners",
      "outputs": [
        {
          "internalType": "address[]",
          "name": "",
          "type": "address[]"
        }
      ],
      "stateMutability": "view",
      "type": "function"
    },
    {
      "inputs": [
        {
          "internalType": "uint256",
          "name": "_txIndex",
          "type": "uint256"
        }
      ],
      "name": "getTransactionStatus",
      "outputs": [
        {
          "internalType": "address",
          "name": "to",
          "type": "address"
        },
        {
          "internalType": "uint256",
          "name": "value",
          "type": "uint256"
        },
        {
          "internalType": "bytes",
          "name": "data",
          "type": "bytes"
        },
        {
          "internalType": "uint256",
          "name": "numberOfConfirmations",
          "type": "uint256"
        },
        {
          "internalType": "bool",
          "name": "executed",
          "type": "bool"
        }
      ],
      "stateMutability": "view",
      "type": "function"
    },
    {
      "inputs": [],
      "name": "getTransactionCount",
      "outputs": [
        {
          "internalType": "uint256",
          "name": "",
          "type": "uint256"
        }
      ],
      "stateMutability": "view",
      "type": "function"
    }
  ],
  "bytecode": "0x60806040523480156200001157600080fd5b50604051620021e5380380620021e583398181016040528101906200003791906200034a565b60008251116200007e576040517f08c379a00000000000000000000000000000000000000000000000000000000081526004016200007590620004fa565b60405180910390fd5b60008111801562000090575081518111155b620000d2576040517f08c379a0000000000000000000000000000000000000000000000000000000008152600401620000c990620004d8565b60405180910390fd5b60005b82518110156200026a5760008382815181106200011b577f4e487b7100000000000000000000000000000000000000000000000000000000600052603260045260246000fd5b60200260200101519050600073ffffffffffffffffffffffffffffffffffffffff168173ffffffffffffffffffffffffffffffffffffffff16141562000198576040517f08c379a00000000000000000000000000000000000000000000000000000000081526004016200018f90620004b6565b60405180910390fd5b6001600360008373ffffffffffffffffffffffffffffffffffffffff1673ffffffffffffffffffffffffffffffffffffffff16815260200190815260200160002060006101000a81548160ff0219169083151502179055506000819080600181540180825580915050600190039060005260206000200160009091909190916101000a81548173ffffffffffffffffffffffffffffffffffffffff021916908373ffffffffffffffffffffffffffffffffffffffff1602179055505080806200026190620005ce565b915050620000d5565b50806001819055505050620006ae565b6000620002916200028b8462000550565b6200051c565b90508083825260208201905082856020860282011115620002b157600080fd5b60005b85811015620002e55781620002ca8882620002ef565b845260208401935060208301925050600181019050620002b4565b5050509392505050565b60008151905062000300816200067a565b92915050565b600082601f8301126200031857600080fd5b81516200032a8482602086016200027a565b91505092915050565b600081519050620003448162000694565b92915050565b600080604083850312156200035e57600080fd5b600083015167ffffffffffffffff8111156200037957600080fd5b620003878582860162000306565b92505060206200039a8582860162000333565b9150509250929050565b6000620003b36028836200057f565b91507f416464726573732061646465642063616e6e6f7420626520746865207a65726f60008301527f20616464726573730000000000000000000000000000000000000000000000006020830152604082019050919050565b60006200041b6028836200057f565b91507f496e76616c6964206e756d626572206f6620636f6e6669726d6174696f6e732060008301527f72657175697265640000000000000000000000000000000000000000000000006020830152604082019050919050565b600062000483601d836200057f565b91507f496e73756666696369656e74206e756d626572206f66206f776e6572730000006000830152602082019050919050565b60006020820190508181036000830152620004d181620003a4565b9050919050565b60006020820190508181036000830152620004f3816200040c565b9050919050565b60006020820190508181036000830152620005158162000474565b9050919050565b6000604051905081810181811067ffffffffffffffff821117156200054657620005456200064b565b5b8060405250919050565b600067ffffffffffffffff8211156200056e576200056d6200064b565b5b602082029050602081019050919050565b600082825260208201905092915050565b60006200059d82620005a4565b9050919050565b600073ffffffffffffffffffffffffffffffffffffffff82169050919050565b6000819050919050565b6000620005db82620005c4565b91507fffffffffffffffffffffffffffffffffffffffffffffffffffffffffffffffff8214156200061157620006106200061c565b5b600182019050919050565b7f4e487b7100000000000000000000000000000000000000000000000000000000600052601160045260246000fd5b7f4e487b7100000000000000000000000000000000000000000000000000000000600052604160045260246000fd5b620006858162000590565b81146200069157600080fd5b50565b6200069f81620005c4565b8114620006ab57600080fd5b50565b611b2780620006be6000396000f3fe6080604052600436106100c65760003560e01c80637580ddb11161007f578063c01a8c8411610059578063c01a8c8414610305578063c64274741461032e578063d3130f1a14610357578063ee22610b146103825761011d565b80637580ddb11461026e5780639ace38c214610299578063a0e67e2b146102da5761011d565b8063025e7c271461012257806308aff9331461015f57806320ea8d861461019c5780632e7700f0146101c55780632f54bf6e146101f05780636bbc379d1461022d5761011d565b3661011d573373ffffffffffffffffffffffffffffffffffffffff167fad40ae5dc69974ba932d08b0a608e89109412d41d04850f5196f144875ae26603447604051610113929190611786565b60405180910390a2005b600080fd5b34801561012e57600080fd5b506101496004803603810190610144919061123d565b6103ab565b60405161015691906115c9565b60405180910390f35b34801561016b57600080fd5b5061018660048036038101906101819190611266565b6103ea565b6040516101939190611660565b60405180910390f35b3480156101a857600080fd5b506101c360048036038101906101be919061123d565b610419565b005b3480156101d157600080fd5b506101da610684565b6040516101e7919061173b565b60405180910390f35b3480156101fc57600080fd5b50610217600480360381019061021291906111ad565b61068e565b6040516102249190611660565b60405180910390f35b34801561023957600080fd5b50610254600480360381019061024f919061123d565b6106ae565b6040516102659594939291906115e4565b60405180910390f35b34801561027a57600080fd5b506102836107b2565b604051610290919061173b565b60405180910390f35b3480156102a557600080fd5b506102c060048036038101906102bb919061123d565b6107b8565b6040516102d19594939291906115e4565b60405180910390f35b3480156102e657600080fd5b506102ef6108a3565b6040516102fc919061163e565b60405180910390f35b34801561031157600080fd5b5061032c6004803603810190610327919061123d565b610931565b005b34801561033a57600080fd5b50610355600480360381019061035091906111d6565b610bba565b005b34801561036357600080fd5b5061036c610df1565b604051610379919061173b565b60405180910390f35b34801561038e57600080fd5b506103a960048036038101906103a4919061123d565b610df7565b005b600081815481106103bb57600080fd5b906000526020600020016000915054906101000a900473ffffffffffffffffffffffffffffffffffffffff1681565b60056020528160005260406000206020528060005260406000206000915091509054906101000a900460ff1681565b60011515600360003373ffffffffffffffffffffffffffffffffffffffff1673ffffffffffffffffffffffffffffffffffffffff16815260200190815260200160002060009054906101000a900460ff161515146104ac576040517f08c379a00000000000000000000000000000000000000000000000000000000081526004016104a3906116fb565b60405180910390fd5b80600015156004600083815260200190815260200160002060040160009054906101000a900460ff16151514610517576040517f08c379a000000000000000000000000000000000000000000000000000000000815260040161050e906116db565b60405180910390fd5b600115156005600084815260200190815260200160002060003373ffffffffffffffffffffffffffffffffffffffff1673ffffffffffffffffffffffffffffffffffffffff16815260200190815260200160002060009054906101000a900460ff161515146105bb576040517f08c379a00000000000000000000000000000000000000000000000000000000081526004016105b29061167b565b60405180910390fd5b600060046000848152602001908152602001600020905060006005600085815260200190815260200160002060003373ffffffffffffffffffffffffffffffffffffffff1673ffffffffffffffffffffffffffffffffffffffff16815260200190815260200160002060006101000a81548160ff021916908315150217905550823373ffffffffffffffffffffffffffffffffffffffff167fd35777b395efc522e90e0e5c007123aade4837190c8d78a0fff066e9debd1e8b60405160405180910390a3505050565b6000600254905090565b60036020528060005260406000206000915054906101000a900460ff1681565b600080606060008060006004600088815260200190815260200160002090508060000160009054906101000a900473ffffffffffffffffffffffffffffffffffffffff1681600101548260020183600301548460040160009054906101000a900460ff1682805461071e906119aa565b80601f016020809104026020016040519081016040528092919081815260200182805461074a906119aa565b80156107975780601f1061076c57610100808354040283529160200191610797565b820191906000526020600020905b81548152906001019060200180831161077a57829003601f168201915b50505050509250955095509550955095505091939590929450565b60015481565b60046020528060005260406000206000915090508060000160009054906101000a900473ffffffffffffffffffffffffffffffffffffffff1690806001015490806002018054610807906119aa565b80601f0160208091040260200160405190810160405280929190818152602001828054610833906119aa565b80156108805780601f1061085557610100808354040283529160200191610880565b820191906000526020600020905b81548152906001019060200180831161086357829003601f168201915b5050505050908060030154908060040160009054906101000a900460ff16905085565b6060600080548060200260200160405190810160405280929190818152602001828054801561092757602002820191906000526020600020905b8160009054906101000a900473ffffffffffffffffffffffffffffffffffffffff1673ffffffffffffffffffffffffffffffffffffffff16815260200190600101908083116108dd575b5050505050905090565b60011515600360003373ffffffffffffffffffffffffffffffffffffffff1673ffffffffffffffffffffffffffffffffffffffff16815260200190815260200160002060009054906101000a900460ff161515146109c4576040517f08c379a00000000000000000000000000000000000000000000000000000000081526004016109bb906116fb565b60405180910390fd5b80600015156005600083815260200190815260200160002060003373ffffffffffffffffffffffffffffffffffffffff1673ffffffffffffffffffffffffffffffffffffffff16815260200190815260200160002060009054906101000a900460ff16151514610a69576040517f08c379a0000000000000000000000000000000000000000000000000000000008152600401610a609061169b565b60405180910390fd5b81600015156004600083815260200190815260200160002060040160009054906101000a900460ff16151514610ad4576040517f08c379a0000000000000000000000000000000000000000000000000000000008152600401610acb906116db565b60405180910390fd5b60006004600085815260200190815260200160002090506001816003016000828254610b009190611896565b9250508190555060016005600086815260200190815260200160002060003373ffffffffffffffffffffffffffffffffffffffff1673ffffffffffffffffffffffffffffffffffffffff16815260200190815260200160002060006101000a81548160ff021916908315150217905550833373ffffffffffffffffffffffffffffffffffffffff167f266dab44411dcfab943d55af4011a040a37d547ebcaacef4ed5fc949a2b2ad7560405160405180910390a350505050565b60011515600360003373ffffffffffffffffffffffffffffffffffffffff1673ffffffffffffffffffffffffffffffffffffffff16815260200190815260200160002060009054906101000a900460ff16151514610c4d576040517f08c379a0000000000000000000000000000000000000000000000000000000008152600401610c44906116fb565b60405180910390fd5b60006004600060025481526020019081526020016000209050838160000160006101000a81548173ffffffffffffffffffffffffffffffffffffffff021916908373ffffffffffffffffffffffffffffffffffffffff16021790555082816001018190555081816002019080519060200190610cca929190611078565b506001816003018190555060008160040160006101000a81548160ff021916908315150217905550600160056000600254815260200190815260200160002060003373ffffffffffffffffffffffffffffffffffffffff1673ffffffffffffffffffffffffffffffffffffffff16815260200190815260200160002060006101000a81548160ff02191690831515021790555060026000815480929190610d70906119dc565b91905055506001600254610d8491906118ec565b8473ffffffffffffffffffffffffffffffffffffffff163373ffffffffffffffffffffffffffffffffffffffff167f5276b933e6575889a9dae49f90a606dd3baa3e0a3345269dc083db4f70cb22c98686604051610de3929190611756565b60405180910390a450505050565b60025481565b60011515600360003373ffffffffffffffffffffffffffffffffffffffff1673ffffffffffffffffffffffffffffffffffffffff16815260200190815260200160002060009054906101000a900460ff16151514610e8a576040517f08c379a0000000000000000000000000000000000000000000000000000000008152600401610e81906116fb565b60405180910390fd5b80600015156004600083815260200190815260200160002060040160009054906101000a900460ff16151514610ef5576040517f08c379a0000000000000000000000000000000000000000000000000000000008152600401610eec906116db565b60405180910390fd5b600060046000848152602001908152602001600020905060015481600301541015610f55576040517f08c379a0000000000000000000000000000000000000000000000000000000008152600401610f4c906116bb565b60405180910390fd5b60008160000160009054906101000a900473ffffffffffffffffffffffffffffffffffffffff1673ffffffffffffffffffffffffffffffffffffffff16826001015483600201604051610fa891906115b2565b60006040518083038185875af1925050503d8060008114610fe5576040519150601f19603f3d011682016040523d82523d6000602084013e610fea565b606091505b505090508061102e576040517f08c379a00000000000000000000000000000000000000000000000000000000081526004016110259061171b565b60405180910390fd5b833373ffffffffffffffffffffffffffffffffffffffff167f3a4792f01ee5cda1b7890fd3d16d2641efeef2d57e46b39e26810fd2e707287c60405160405180910390a350505050565b828054611084906119aa565b90600052602060002090601f0160209004810192826110a657600085556110ed565b82601f106110bf57805160ff19168380011785556110ed565b828001600101855582156110ed579182015b828111156110ec5782518255916020019190600101906110d1565b5b5090506110fa91906110fe565b5090565b5b808211156111175760008160009055506001016110ff565b5090565b600061112e611129846117e0565b6117af565b90508281526020810184848401111561114657600080fd5b611151848285611968565b509392505050565b60008135905061116881611ac3565b92915050565b600082601f83011261117f57600080fd5b813561118f84826020860161111b565b91505092915050565b6000813590506111a781611ada565b92915050565b6000602082840312156111bf57600080fd5b60006111cd84828501611159565b91505092915050565b6000806000606084860312156111eb57600080fd5b60006111f986828701611159565b935050602061120a86828701611198565b925050604084013567ffffffffffffffff81111561122757600080fd5b6112338682870161116e565b9150509250925092565b60006020828403121561124f57600080fd5b600061125d84828501611198565b91505092915050565b6000806040838503121561127957600080fd5b600061128785828601611198565b925050602061129885828601611159565b9150509250929050565b60006112ae83836112ba565b60208301905092915050565b6112c381611920565b82525050565b6112d281611920565b82525050565b60006112e382611835565b6112ed8185611858565b93506112f883611810565b8060005b8381101561132957815161131088826112a2565b975061131b8361184b565b9250506001810190506112fc565b5085935050505092915050565b61133f81611932565b82525050565b600061135082611840565b61135a8185611869565b935061136a818560208601611977565b61137381611ab2565b840191505092915050565b6000815461138b816119aa565b611395818661187a565b945060018216600081146113b057600181146113c1576113f4565b60ff198316865281860193506113f4565b6113ca85611820565b60005b838110156113ec578154818901526001820191506020810190506113cd565b838801955050505b50505092915050565b600061140a601b83611885565b91507f6f776e657220686173206e6f742079657420636f6e6669726d656400000000006000830152602082019050919050565b600061144a601183611885565b91507f616c726561647920636f6e6669726d65640000000000000000000000000000006000830152602082019050919050565b600061148a601a83611885565b91507f496e73756666696369656e7420636f6e6669726d6174696f6e730000000000006000830152602082019050919050565b60006114ca602583611885565b91507f5472616e73616374696f6e20686173206265656e20657865637574656420616c60008301527f72656164790000000000000000000000000000000000000000000000000000006020830152604082019050919050565b6000611530600983611885565b91507f4e6f74206f776e657200000000000000000000000000000000000000000000006000830152602082019050919050565b6000611570601283611885565b91507f5472616e73616374696f6e204661696c656400000000000000000000000000006000830152602082019050919050565b6115ac8161195e565b82525050565b60006115be828461137e565b915081905092915050565b60006020820190506115de60008301846112c9565b92915050565b600060a0820190506115f960008301886112c9565b61160660208301876115a3565b81810360408301526116188186611345565b905061162760608301856115a3565b6116346080830184611336565b9695505050505050565b6000602082019050818103600083015261165881846112d8565b905092915050565b60006020820190506116756000830184611336565b92915050565b60006020820190508181036000830152611694816113fd565b9050919050565b600060208201905081810360008301526116b48161143d565b9050919050565b600060208201905081810360008301526116d48161147d565b9050919050565b600060208201905081810360008301526116f4816114bd565b9050919050565b6000602082019050818103600083015261171481611523565b9050919050565b6000602082019050818103600083015261173481611563565b9050919050565b600060208201905061175060008301846115a3565b92915050565b600060408201905061176b60008301856115a3565b818103602083015261177d8184611345565b90509392505050565b600060408201905061179b60008301856115a3565b6117a860208301846115a3565b9392505050565b6000604051905081810181811067ffffffffffffffff821117156117d6576117d5611a83565b5b8060405250919050565b600067ffffffffffffffff8211156117fb576117fa611a83565b5b601f19601f8301169050602081019050919050565b6000819050602082019050919050565b60008190508160005260206000209050919050565b600081519050919050565b600081519050919050565b6000602082019050919050565b600082825260208201905092915050565b600082825260208201905092915050565b600081905092915050565b600082825260208201905092915050565b60006118a18261195e565b91506118ac8361195e565b9250827fffffffffffffffffffffffffffffffffffffffffffffffffffffffffffffffff038211156118e1576118e0611a25565b5b828201905092915050565b60006118f78261195e565b91506119028361195e565b92508282101561191557611914611a25565b5b828203905092915050565b600061192b8261193e565b9050919050565b60008115159050919050565b600073ffffffffffffffffffffffffffffffffffffffff82169050919050565b6000819050919050565b82818337600083830152505050565b60005b8381101561199557808201518184015260208101905061197a565b838111156119a4576000848401525b50505050565b600060028204905060018216806119c257607f821691505b602082108114156119d6576119d5611a54565b5b50919050565b60006119e78261195e565b91507fffffffffffffffffffffffffffffffffffffffffffffffffffffffffffffffff821415611a1a57611a19611a25565b5b600182019050919050565b7f4e487b7100000000000000000000000000000000000000000000000000000000600052601160045260246000fd5b7f4e487b7100000000000000000000000000000000000000000000000000000000600052602260045260246000fd5b7f4e487b7100000000000000000000000000000000000000000000000000000000600052604160045260246000fd5b6000601f19601f8301169050919050565b611acc81611920565b8114611ad757600080fd5b50565b611ae38161195e565b8114611aee57600080fd5b5056fea2646970667358221220251b1c2879e319922c8e7262297d2286c68750a272db75bd3bb326a89b20a01264736f6c63430008000033",
  "immutableReferences": {},
  "source": "// SPDX-License-Identifier: MIT\r\npragma solidity ^0.8.0;\r\npragma experimental ABIEncoderV2;\r\n\r\ncontract MultiSigWallet {\r\n    /// Storage Variables:\r\n    address[] public owners;\r\n    uint256 public numberOfConfirmationsRequired;\r\n    uint256 public txIndex;\r\n\r\n    /// Mappings:\r\n    mapping(address => bool) public isOwner;\r\n    mapping(uint256 => Transaction) public transactions;\r\n    mapping(uint256 => mapping(address => bool)) public hasConfirmed;\r\n\r\n    /// Data structures:\r\n    // Transaction Structure:\r\n    struct Transaction {\r\n        address to;\r\n        uint256 value;\r\n        bytes data;\r\n        uint256 numberOfConfirmations;\r\n        bool executed;\r\n    }\r\n\r\n    /// Events:\r\n\r\n    // Depositing funds to Wallet:\r\n    event DepositEvent(address indexed sender, uint256 amount, uint256 balance);\r\n\r\n    // Submitting Transaction Event:\r\n    event submitTransactionDetails(\r\n        address indexed owner,\r\n        address indexed to,\r\n        uint256 value,\r\n        bytes data,\r\n        uint256 indexed txIndex\r\n    );\r\n\r\n    // Confirming Transaction:\r\n    event confirmTransactionDetails(\r\n        address indexed owner,\r\n        uint256 indexed txIndex\r\n    );\r\n\r\n    // Execute Transaction:\r\n    event executeTransactionDetails(\r\n        address indexed owner,\r\n        uint256 indexed txIndex\r\n    );\r\n\r\n    // Revoke Confirmation:\r\n    event revokeConfirmationDetails(\r\n        address indexed owner,\r\n        uint256 indexed txIndex\r\n    );\r\n\r\n    /// Modifiers:\r\n\r\n    // only Owner Authorization:\r\n    modifier onlyOwner() {\r\n        require(isOwner[msg.sender] == true, \"Not owner\");\r\n        _;\r\n    }\r\n\r\n    // Validate Transaction is NOT Executed:\r\n    modifier notExecuted(uint256 _txIndex) {\r\n        require(\r\n            transactions[_txIndex].executed == false,\r\n            \"Transaction has been executed already\"\r\n        );\r\n        _;\r\n    }\r\n\r\n    // Validate Particular Address confirming has NOT done so:\r\n    modifier notConfirmed(uint256 _txIndex) {\r\n        require(\r\n            hasConfirmed[_txIndex][msg.sender] == false,\r\n            \"already confirmed\"\r\n        );\r\n        _;\r\n    }\r\n\r\n    constructor(\r\n        address[] memory _ownersAddressArray,\r\n        uint256 _numConfirmationsRequired\r\n    ) {\r\n        require(\r\n            _ownersAddressArray.length > 0,\r\n            \"Insufficient number of owners\"\r\n        );\r\n        require(\r\n            _numConfirmationsRequired > 0 &&\r\n                _numConfirmationsRequired <= _ownersAddressArray.length,\r\n            \"Invalid number of confirmations required\"\r\n        );\r\n\r\n        // Validate none of the addreses are ZER0_ADDRESSES:\r\n        for (uint256 i = 0; i < _ownersAddressArray.length; i++) {\r\n            address _ownerToBeAdded = _ownersAddressArray[i];\r\n            require(\r\n                _ownerToBeAdded != address(0),\r\n                \"Address added cannot be the zero address\"\r\n            );\r\n\r\n            // Add validated address as an owner of this wallet\r\n            isOwner[_ownerToBeAdded] = true;\r\n            owners.push(_ownerToBeAdded);\r\n        }\r\n\r\n        // Set the number of Confirmations Required:\r\n        numberOfConfirmationsRequired = _numConfirmationsRequired;\r\n    }\r\n\r\n    /// Core Functions of the Multi-Sig Wallet:\r\n\r\n    // 1.) Submitting a Transaction:\r\n    function submitTransaction(\r\n        address _to,\r\n        uint256 _value,\r\n        bytes memory _data\r\n    ) public onlyOwner {\r\n        // Creating a new struct with nested mapping:\r\n        Transaction storage newTransaction = transactions[txIndex];\r\n        newTransaction.to = _to;\r\n        newTransaction.value = _value;\r\n        newTransaction.data = _data;\r\n        newTransaction.numberOfConfirmations = 1;\r\n        newTransaction.executed = false;\r\n        // newTransaction.confirmedOwners.push(msg.sender);\r\n\r\n        hasConfirmed[txIndex][msg.sender] = true;\r\n\r\n        // Increment txIndex:\r\n        txIndex++;\r\n\r\n        // emit event:\r\n        emit submitTransactionDetails(\r\n            msg.sender,\r\n            _to,\r\n            _value,\r\n            _data,\r\n            txIndex - 1\r\n        );\r\n    }\r\n\r\n    // 2.) Confirming Transaction:\r\n    // Check for whether caller is an owner of this wallet, has NOT confirmed this transaction and this transaction has NOT been executed\r\n    function confirmTransaction(uint256 _txIndex)\r\n        public\r\n        onlyOwner\r\n        notConfirmed(_txIndex)\r\n        notExecuted(_txIndex)\r\n    {\r\n        Transaction storage specificTransaction = transactions[_txIndex];\r\n\r\n        // Appending owner's approval to confirm the transaction:\r\n        specificTransaction.numberOfConfirmations += 1;\r\n        hasConfirmed[_txIndex][msg.sender] = true;\r\n        // specificTransaction.confirmedOwners.push(msg.sender);\r\n\r\n        // emit event:\r\n        emit confirmTransactionDetails(msg.sender, _txIndex);\r\n    }\r\n\r\n    // 3.) Execute transaction:\r\n    function executeTransaction(uint256 _txIndex)\r\n        public\r\n        onlyOwner\r\n        notExecuted(_txIndex)\r\n    {\r\n        Transaction storage specificPendingTransaction = transactions[_txIndex];\r\n\r\n        require(\r\n            specificPendingTransaction.numberOfConfirmations >=\r\n                numberOfConfirmationsRequired,\r\n            \"Insufficient confirmations\"\r\n        );\r\n\r\n        // Low-level function used to transaction:\r\n        (bool success, ) = specificPendingTransaction.to.call{\r\n            value: specificPendingTransaction.value\r\n        }(specificPendingTransaction.data);\r\n        require(success, \"Transaction Failed\");\r\n\r\n        // emit Event:\r\n        emit executeTransactionDetails(msg.sender, _txIndex);\r\n    }\r\n\r\n    // 4.) Revoke Confirmation:\r\n    function revokeConfirmation(uint256 _txIndex)\r\n        public\r\n        onlyOwner\r\n        notExecuted(_txIndex)\r\n    {\r\n        require(\r\n            hasConfirmed[_txIndex][msg.sender] == true,\r\n            \"owner has not yet confirmed\"\r\n        );\r\n\r\n        Transaction storage specificPendingTransaction = transactions[_txIndex];\r\n\r\n        // Update state:\r\n        hasConfirmed[_txIndex][msg.sender] = false;\r\n\r\n        // for (\r\n        //     uint256 i;\r\n        //     i < specificPendingTransaction.confirmedOwners.length;\r\n        //     i++\r\n        // ) {\r\n        //     if (specificPendingTransaction.confirmedOwner[i] == msg.sender) {}\r\n        // }\r\n\r\n        // emit Event:\r\n        revokeConfirmationDetails(msg.sender, _txIndex);\r\n    }\r\n\r\n    /// Helper Functions:\r\n\r\n    function getOwners() public view returns (address[] memory) {\r\n        return owners;\r\n    }\r\n\r\n    function getTransactionStatus(uint256 _txIndex)\r\n        public\r\n        view\r\n        returns (\r\n            address to,\r\n            uint256 value,\r\n            bytes memory data,\r\n            uint256 numberOfConfirmations,\r\n            bool executed\r\n        )\r\n    {\r\n        Transaction storage specificTransaction = transactions[_txIndex];\r\n\r\n        return (\r\n            specificTransaction.to,\r\n            specificTransaction.value,\r\n            specificTransaction.data,\r\n            specificTransaction.numberOfConfirmations,\r\n            specificTransaction.executed\r\n        );\r\n    }\r\n\r\n    function getTransactionCount() public view returns (uint256) {\r\n        return txIndex;\r\n    }\r\n\r\n    // Fallback Function:\r\n    receive() external payable {\r\n        // Emit event after receiving:\r\n        emit DepositEvent(msg.sender, msg.value, address(this).balance);\r\n    }\r\n}\r\n",
  "sourcePath": "C:/Users/victo/solidityGH/multiSigWallet/Ethereum-Multi-Signature-Wallet/contracts/MultiSigWallet.sol",
  "compiler": {
    "name": "solc",
    "version": "0.8.0+commit.c7dfd78e.Emscripten.clang"
  },
  "schemaVersion": "3.4.1",
  "updatedAt": "2021-07-23T14:01:27.060Z",
  "devdoc": {
    "kind": "dev",
    "methods": {},
    "version": 1
  },
  "userdoc": {
    "events": {
      "DepositEvent(address,uint256,uint256)": {
        "notice": "Events:"
      }
    },
    "kind": "user",
    "methods": {
      "getOwners()": {
        "notice": "Helper Functions:"
      },
      "isOwner(address)": {
        "notice": "Mappings:"
      },
      "owners(uint256)": {
        "notice": "Storage Variables:"
      },
      "submitTransaction(address,uint256,bytes)": {
        "notice": "Core Functions of the Multi-Sig Wallet:"
      }
    },
    "version": 1
  }
}